{
  "contract_address": "0x35A9a6B7735622c8bBFeF4B24369552002228652",
  "_format": "hh-sol-artifact-1",
  "contractName": "Medical",
  "sourceName": "contracts/Medical.sol",
  "abi": [
    {
      "inputs": [],
      "stateMutability": "payable",
      "type": "constructor"
    },
    {
      "anonymous": false,
      "inputs": [
        {
          "indexed": false,
          "internalType": "address",
          "name": "h_address",
          "type": "address"
        },
        {
          "indexed": false,
          "internalType": "address",
          "name": "d_address",
          "type": "address"
        },
        {
          "indexed": false,
          "internalType": "string",
          "name": "name",
          "type": "string"
        },
        {
          "indexed": false,
          "internalType": "uint256",
          "name": "timestamp",
          "type": "uint256"
        }
      ],
      "name": "DoctorAddSuccess",
      "type": "event"
    },
    {
      "anonymous": false,
      "inputs": [
        {
          "indexed": false,
          "internalType": "address",
          "name": "h_owner",
          "type": "address"
        },
        {
          "indexed": false,
          "internalType": "string",
          "name": "name",
          "type": "string"
        },
        {
          "indexed": false,
          "internalType": "uint256",
          "name": "timestamp",
          "type": "uint256"
        }
      ],
      "name": "HospitalAddSuccess",
      "type": "event"
    },
    {
      "inputs": [
        {
          "internalType": "address",
          "name": "d_address",
          "type": "address"
        },
        {
          "internalType": "string",
          "name": "name",
          "type": "string"
        }
      ],
      "name": "addDoctor",
      "outputs": [],
      "stateMutability": "nonpayable",
      "type": "function"
    },
    {
      "inputs": [
        {
          "internalType": "address",
          "name": "h_owner",
          "type": "address"
        },
        {
          "internalType": "string",
          "name": "name",
          "type": "string"
        }
      ],
      "name": "addHospital",
      "outputs": [],
      "stateMutability": "nonpayable",
      "type": "function"
    },
    {
      "inputs": [
        {
          "internalType": "address",
          "name": "newOwner",
          "type": "address"
        }
      ],
      "name": "changeOwner",
      "outputs": [],
      "stateMutability": "nonpayable",
      "type": "function"
    },
    {
      "inputs": [
        {
          "internalType": "address",
          "name": "h_address",
          "type": "address"
        }
      ],
      "name": "getDoctors",
      "outputs": [
        {
          "components": [
            {
              "internalType": "address",
              "name": "d_address",
              "type": "address"
            },
            {
              "internalType": "string",
              "name": "name",
              "type": "string"
            },
            {
              "internalType": "uint256",
              "name": "timestamp",
              "type": "uint256"
            }
          ],
          "internalType": "struct Medical.Doctor[]",
          "name": "",
          "type": "tuple[]"
        }
      ],
      "stateMutability": "view",
      "type": "function"
    },
    {
      "inputs": [
        {
          "internalType": "address",
          "name": "h_address",
          "type": "address"
        }
      ],
      "name": "getHospital",
      "outputs": [
        {
          "components": [
            {
              "internalType": "string",
              "name": "name",
              "type": "string"
            },
            {
              "internalType": "uint256",
              "name": "timestamp",
              "type": "uint256"
            },
            {
              "internalType": "bool",
              "name": "exists",
              "type": "bool"
            }
          ],
          "internalType": "struct Medical.Hospital",
          "name": "",
          "type": "tuple"
        }
      ],
      "stateMutability": "view",
      "type": "function"
    }
  ],
  "bytecode": "0x6080604052336000806101000a81548173ffffffffffffffffffffffffffffffffffffffff021916908373ffffffffffffffffffffffffffffffffffffffff160217905550610dec806100536000396000f3fe608060405234801561001057600080fd5b50600436106100575760003560e01c80632da451a51461005c578063457bcea91461008c5780637cf1e445146100a8578063a6f9dae1146100c4578063c49b09b5146100e0575b600080fd5b61007660048036038101906100719190610868565b610110565b6040516100839190610b49565b60405180910390f35b6100a660048036038101906100a19190610891565b6102a0565b005b6100c260048036038101906100bd9190610891565b6103de565b005b6100de60048036038101906100d99190610868565b61057a565b005b6100fa60048036038101906100f59190610868565b610615565b6040516101079190610b8b565b60405180910390f35b6060600260008373ffffffffffffffffffffffffffffffffffffffff1673ffffffffffffffffffffffffffffffffffffffff168152602001908152602001600020805480602002602001604051908101604052809291908181526020016000905b8282101561029557838290600052602060002090600302016040518060600160405290816000820160009054906101000a900473ffffffffffffffffffffffffffffffffffffffff1673ffffffffffffffffffffffffffffffffffffffff1673ffffffffffffffffffffffffffffffffffffffff1681526020016001820180546101fa90610cfe565b80601f016020809104026020016040519081016040528092919081815260200182805461022690610cfe565b80156102735780601f1061024857610100808354040283529160200191610273565b820191906000526020600020905b81548152906001019060200180831161025657829003601f168201915b5050505050815260200160028201548152505081526020019060010190610171565b505050509050919050565b60008054906101000a900473ffffffffffffffffffffffffffffffffffffffff1673ffffffffffffffffffffffffffffffffffffffff163373ffffffffffffffffffffffffffffffffffffffff16146102f857600080fd5b604051806060016040528082815260200142815260200160011515815250600160008473ffffffffffffffffffffffffffffffffffffffff1673ffffffffffffffffffffffffffffffffffffffff1681526020019081526020016000206000820151816000019080519060200190610371929190610725565b506020820151816001015560408201518160020160006101000a81548160ff0219169083151502179055509050507f6030e3abfad309c687420d4aaaac2ae6738e9f52a6b5bfec7426f14a85a51bce8282426040516103d293929190610b0b565b60405180910390a15050565b600160003373ffffffffffffffffffffffffffffffffffffffff1673ffffffffffffffffffffffffffffffffffffffff16815260200190815260200160002060020160009054906101000a900460ff1661046d576040517f08c379a000000000000000000000000000000000000000000000000000000000815260040161046490610b6b565b60405180910390fd5b600260003373ffffffffffffffffffffffffffffffffffffffff1673ffffffffffffffffffffffffffffffffffffffff16815260200190815260200160002060405180606001604052808473ffffffffffffffffffffffffffffffffffffffff16815260200183815260200142815250908060018154018082558091505060019003906000526020600020906003020160009091909190915060008201518160000160006101000a81548173ffffffffffffffffffffffffffffffffffffffff021916908373ffffffffffffffffffffffffffffffffffffffff1602179055506020820151816001019080519060200190610569929190610725565b506040820151816002015550505050565b60008054906101000a900473ffffffffffffffffffffffffffffffffffffffff1673ffffffffffffffffffffffffffffffffffffffff163373ffffffffffffffffffffffffffffffffffffffff16146105d257600080fd5b806000806101000a81548173ffffffffffffffffffffffffffffffffffffffff021916908373ffffffffffffffffffffffffffffffffffffffff16021790555050565b61061d6107ab565b600160008373ffffffffffffffffffffffffffffffffffffffff1673ffffffffffffffffffffffffffffffffffffffff16815260200190815260200160002060405180606001604052908160008201805461067790610cfe565b80601f01602080910402602001604051908101604052809291908181526020018280546106a390610cfe565b80156106f05780601f106106c5576101008083540402835291602001916106f0565b820191906000526020600020905b8154815290600101906020018083116106d357829003601f168201915b50505050508152602001600182015481526020016002820160009054906101000a900460ff1615151515815250509050919050565b82805461073190610cfe565b90600052602060002090601f016020900481019282610753576000855561079a565b82601f1061076c57805160ff191683800117855561079a565b8280016001018555821561079a579182015b8281111561079957825182559160200191906001019061077e565b5b5090506107a791906107ce565b5090565b604051806060016040528060608152602001600081526020016000151581525090565b5b808211156107e75760008160009055506001016107cf565b5090565b60006107fe6107f984610bde565b610bad565b90508281526020810184848401111561081657600080fd5b610821848285610cbc565b509392505050565b60008135905061083881610d9f565b92915050565b600082601f83011261084f57600080fd5b813561085f8482602086016107eb565b91505092915050565b60006020828403121561087a57600080fd5b600061088884828501610829565b91505092915050565b600080604083850312156108a457600080fd5b60006108b285828601610829565b925050602083013567ffffffffffffffff8111156108cf57600080fd5b6108db8582860161083e565b9150509250929050565b60006108f18383610a4d565b905092915050565b61090281610c74565b82525050565b61091181610c74565b82525050565b600061092282610c1e565b61092c8185610c41565b93508360208202850161093e85610c0e565b8060005b8581101561097a578484038952815161095b85826108e5565b945061096683610c34565b925060208a01995050600181019050610942565b50829750879550505050505092915050565b61099581610c86565b82525050565b60006109a682610c29565b6109b08185610c52565b93506109c0818560208601610ccb565b6109c981610d8e565b840191505092915050565b60006109df82610c29565b6109e98185610c63565b93506109f9818560208601610ccb565b610a0281610d8e565b840191505092915050565b6000610a1a601783610c63565b91507f486f73706974616c20646f65736e2774206578697374730000000000000000006000830152602082019050919050565b6000606083016000830151610a6560008601826108f9565b5060208301518482036020860152610a7d828261099b565b9150506040830151610a926040860182610aed565b508091505092915050565b60006060830160008301518482036000860152610aba828261099b565b9150506020830151610acf6020860182610aed565b506040830151610ae2604086018261098c565b508091505092915050565b610af681610cb2565b82525050565b610b0581610cb2565b82525050565b6000606082019050610b206000830186610908565b8181036020830152610b3281856109d4565b9050610b416040830184610afc565b949350505050565b60006020820190508181036000830152610b638184610917565b905092915050565b60006020820190508181036000830152610b8481610a0d565b9050919050565b60006020820190508181036000830152610ba58184610a9d565b905092915050565b6000604051905081810181811067ffffffffffffffff82111715610bd457610bd3610d5f565b5b8060405250919050565b600067ffffffffffffffff821115610bf957610bf8610d5f565b5b601f19601f8301169050602081019050919050565b6000819050602082019050919050565b600081519050919050565b600081519050919050565b6000602082019050919050565b600082825260208201905092915050565b600082825260208201905092915050565b600082825260208201905092915050565b6000610c7f82610c92565b9050919050565b60008115159050919050565b600073ffffffffffffffffffffffffffffffffffffffff82169050919050565b6000819050919050565b82818337600083830152505050565b60005b83811015610ce9578082015181840152602081019050610cce565b83811115610cf8576000848401525b50505050565b60006002820490506001821680610d1657607f821691505b60208210811415610d2a57610d29610d30565b5b50919050565b7f4e487b7100000000000000000000000000000000000000000000000000000000600052602260045260246000fd5b7f4e487b7100000000000000000000000000000000000000000000000000000000600052604160045260246000fd5b6000601f19601f8301169050919050565b610da881610c74565b8114610db357600080fd5b5056fea26469706673582212208a373e2e4f9a8d024320c2ef3515f7546058627f046a998a5ce2c2278fa6eefc64736f6c63430008000033",
  "linkReferences": {},
  "deployedLinkReferences": {}
}